:1000000055C000006EC000006CC000006AC0000057
:1000100068C0000066C0000064C0000062C000004C
:1000200060C000005EC000005CC000005AC000005C
:1000300058C0000056C0000054C0000052C000006C
:1000400050C000004EC000004CC000004AC000007C
:1000500048C0000046C0000044C0000042C000008C
:1000600040C000003EC000003CC000003AC000009C
:1000700038C0000036C0000034C0000032C00000AC
:1000800030C000002EC000002CC000002AC00000BC
:1000900028C0000026C0000024C0000022C00000CC
:1000A00020C000001EC000001CC0000011241FBEA4
:1000B000CFEFDAE0DEBFCDBF11E0A0E0B1E0E4E3D6
:1000C000F5E002C005900D92A630B107D9F721E006
:1000D000A6E0B1E001C01D92AA30B207E1F712D04C
:1000E00027C28ECF89E190E09093CD008093CC0021
:1000F00082E08093C80088E18093C90086E0809305
:10010000CA000895CF93DF931F92CDB7DEB780E189
:1001100090E0E7D0082FF92E80E88093610081E01D
:1001200080936100849A819A8C9A899ADBDF3FD010
:1001300059D081E05DD063E271EC8BEA90E06AD047
:1001400060E181E17ED08FE097E20197F1F700C096
:10015000000080E056D010E01982CE010196A1D0B7
:10016000AAD08823B9F0B7D060E1802F9F2D7CD032
:100170008998E02FFF2D20E030E08091C80085FFB6
:10018000FCCF81918093CE002F5F3F4F203131050E
:10019000A1F7899A1F5F1E3109F410E0812F31D039
:1001A0008FE79EE30197F1F700C00000D5CF87E00D
:1001B00084B980E58CBD08958FEF8EBD0DB407FE28
:1001C000FDCF8EB508958EBD0DB407FEFDCF8EB563
:1001D00008958C9808958C9A8FB180718FB9882377
:1001E000D9F30895F6DF80E2EEDF8BE0ECDFF3CFAA
:1001F000CF93C82FEEDF83E2E6DF8C2FE4DFCF91D1
:10020000EACFCF93C82FE5DF85E2DDDF8C2FDBDF80
:10021000CF91E1CFCF93DF9300D0CDB7DEB7698325
:100220007A83D7DF8AE2CFDF6981862FCCDF7A81BC
:10023000872FC9DF80E0C7DF0F900F90DF91CF914C
:10024000CACFCF93DF9300D0CDB7DEB76A8389835F
:10025000C0DF89818062B7DF6A81862FB4DF0F90AB
:100260000F90DF91CF91B7CFEF92FF920F931F9333
:10027000CF93DF938C01E62EACDF81E6A4DFE801AB
:10028000F12CCE01801B910B8E159F051CF494DF81
:100290008993F7CFDF91CF911F910F91FF90EF904E
:1002A0009ACFCF93DF93EC0194DF87E08CDF8883D4
:1002B000DF91CF9190CFCF93DF931F92CDB7DEB771
:1002C000CE010196EEDF898186FB882780F90F90A9
:1002D000DF91CF9108957DDF87E275DF806473DF62
:1002E0007ACFCF93DF938230910510F482E090E0D3
:1002F000E0910801F091090120E030E0A0E0B0E0D9
:10030000309739F14081518148175907B8F04817A3
:10031000590771F482819381109729F013969C9369
:100320008E9312972CC0909309018093080127C0E7
:100330002115310531F04217530718F0A901DB01EF
:1003400001C0EF019A01BD01DF010280F381E02DC0
:10035000D7CF21153105F9F0281B390B2430310591
:1003600080F48A819B816115710521F0FB019383E3
:10037000828304C09093090180930801FE013296A4
:1003800044C0FE01E20FF31F819391932250310983
:10039000398328833AC02091060130910701232B2D
:1003A00041F4209102013091030130930701209321
:1003B000060120910001309101012115310541F420
:1003C0002DB73EB74091040150910501241B350B18
:1003D000E0910601F0910701E217F307A0F42E1B4C
:1003E0003F0B2817390778F0AC014E5F5F4F241799
:1003F000350748F04E0F5F1F5093070140930601E9
:100400008193919302C0E0E0F0E0CF01DF91CF91C2
:100410000895CF93DF93009709F487C0FC013297CA
:1004200013821282C0910801D0910901209781F4B2
:1004300020813181280F391F809106019091070199
:100440008217930779F5F0930701E09306016DC0D9
:10045000DE0120E030E0AE17BF0750F412964D9158
:100460005C9113979D014115510509F1DA01F3CF14
:10047000B383A28340815181840F951F8A179B0704
:1004800071F48D919C911197840F951F0296918321
:10049000808312968D919C9113979383828321156B
:1004A000310529F4F0930901E09308013EC0D90118
:1004B0001396FC93EE9312974D915D91A40FB51F87
:1004C000EA17FB0779F480819181840F951F0296CA
:1004D000D90111969C938E938281938113969C935C
:1004E0008E931297E0E0F0E08A819B81009719F0EB
:1004F000FE01EC01F9CFCE01029628813981820FED
:10050000931F20910601309107012817390769F4DC
:10051000309729F4109209011092080102C0138249
:100520001282D0930701C0930601DF91CF91089505
:04053000F894FFCF6D
:0605340000000A01200096
:00000001FF
