:1000000055C0000066C0000064C0000062C000006F
:1000100060C000005EC000005CC000005AC000006C
:1000200058C0000056C0000054C0000052C000007C
:1000300050C000004EC000004CC000004AC000008C
:1000400048C0000046C0000044C0000042C000009C
:1000500040C000003EC000003CC000003AC00000AC
:1000600038C0000036C0000034C0000032C00000BC
:1000700030C000002EC000002CC000002AC00000CC
:1000800028C0000026C0000024C0000022C00000DC
:1000900020C000001EC000001CC000001AC00000EC
:1000A00018C0000016C0000014C0000011241FBEBC
:1000B000CFEFDAE0DEBFCDBF11E0A0E0B1E0E4E7D2
:1000C000F2E002C005900D92A430B107D9F702D03A
:1000D000CFC096CF81E090E055D0F999FECF61E096
:1000E00080E090E05AD080E090E008958F929F9257
:1000F000AF92BF92CF92DF92EF92FF92CF93DF93B6
:10010000EC01688179818A819B8161157105810586
:10011000910521F464E279ED8BE597E02DE133EF71
:1001200041E050E048D049015A019B01AC01A7EAE7
:10013000B1E45DD06B017C01ACEEB4EFA50194019C
:1001400062D0C60ED71EE81EF91EF7FE06C081E07B
:10015000C81AD108E10880E8F80AC882D982EA8280
:10016000FB82C6019F77DF91CF91FF90EF90DF90E8
:10017000CF90BF90AF909F908F900895B7CF80E0C1
:1001800091E0B4CFA0E0B0E0809300019093010132
:10019000A0930201B09303010895262FF999FECF91
:1001A0001FBA92BD81BD20BD0FB6F894FA9AF99A94
:1001B0000FBE01960895052E97FB16F400940FD0FC
:1001C00057FD05D024D007FC02D046F408C0509556
:1001D0004095309521953F4F4F4F5F4F0895909533
:1001E0008095709561957F4F8F4F9F4F089531D0C7
:1001F000A59F900DB49F900DA49F800D911D11247B
:100200000895B7FFF4CFF3DF821B930B0895A1E2AB
:100210001A2EAA1BBB1BFD010DC0AA1FBB1FEE1F80
:10022000FF1FA217B307E407F50720F0A21BB30BCB
:10023000E40BF50B661F771F881F991F1A9469F747
:1002400060957095809590959B01AC01BD01CF01A3
:100250000895A29FB001B39FC001A39F700D811D9F
:100260001124911DB29F700D811D1124911D0895BF
:04027000F894FFCF30
:040274000100000085
:00000001FF
